:1000000020C200003AC2000038C2000036C2000020
:1000100034C2000032C2000030C200002EC2000014
:100020002CC200002AC200000C94B80E0C94830F5E
:100030006DC4000022C2000020C200001EC20000E9
:100040001CC200001AC2000018C2000016C2000044
:1000500014C2000012C2000010C200000EC2000054
:100060000CC200000AC2000008C2000006C2000064
:1000700004C2000002C2000000C20000FEC1000075
:10008000FCC10000FAC10000F8C10000F6C1000088
:10009000F4C10000F2C10000F0C10000EEC1000098
:1000A000ECC10000EAC10000E8C100000D0A504E9A
:1000B000414D45533A20000D0A4B374E56482050CB
:1000C0006F4520504455000D0A4155582000506F8F
:1000D0007765723A20002043757272656E743A201B
:1000E000000954656D70657261747572653A20001F
:1000F0000D0A566F6C746167653A20004F464600E2
:100100004F4E004F4646004F4E004F4646004F4E62
:10011000000D0A4B374E564820506F45205044552D
:10012000005345545643544C005643544C005345D9
:10013000544C494D4954005345544E414D4500538C
:1001400045544943414C005345545643414C005398
:100150004554565245460053455444454600534580
:10016000544359434C4500504359434C4500504F6C
:10017000464600504F4E00444542554700505354A8
:1001800041545553005354415455530048454C5025
:10019000000D0A4943414C3A20000D0A5643414C98
:1001A0003A20000D0A565245463A20000D0A504F9B
:1001B0005254205643544C3A20000D0A504F52548A
:1001C000204355544F4E3A20000D0A504F525420B0
:1001D0004355544F46463A20000D0A504F52542082
:1001E0004C494D49543A20000D0A504359434C455F
:1001F0002054494D453A20000D0A504F5254204496
:10020000454641554C5420000D0A504F5254200091
:100210001B5B44201B5B4400201B5B33366D564F39
:100220004C544147452043544C1B5B306D00201B10
:100230005B33316D214F5645524C4F4144211B5B7E
:10024000306D001B5B33316D44495341424C454492
:100250001B5B306D001B5B33326D454E41424C459C
:10026000441B5B306D000D0A1B5B33316D494E56EC
:10027000414C494420434F4D4D414E441B5B306D32
:10028000000D0A56697369742068747470733A2F8C
:100290002F6769746875622E636F6D2F6E6967656D
:1002A0006C76682F4B374E56482D506F452D504475
:1002B0005520666F722066756C6C20646F63732EB8
:1002C000001A0350006F0045002000500044005504
:1002D000002000560031002E00300000000C034BBF
:1002E0000037004E005600480000000403090409CE
:1002F000023E00020100C0320904000001020201B6
:10030000000524001001042402060524060001074C
:100310000582030800FF09040100020A000000072B
:1003200005040210000507058302100005120110E4
:100330000102000008EB03442002000102DC016E10
:10034000616E00696E660000407A10F35A00A07278
:100350004E18090010A5D4E80000E8764817000000
:10036000E40B54020000CA9A3B000000E1F50500CE
:100370000080969800000040420F000000A0860117
:10038000000000102700000000E8030000000064E7
:1003900000000000000A0000000000010000000052
:1003A000002C76D888DC674F0823DFC1DFAE59E127
:1003B000B1B796E5E3E453C63AE651997696E8E696
:1003C000C28426EB898C9B62ED407C6FFCEFBC9C69
:1003D0009F40F2BAA56FA5F490055A2AF75C936B7B
:1003E0006CF9676DC11BFCE0E40D47FEF520E6B536
:1003F00000D0ED902E0300943577050080841E0810
:100400000000204E0A000000C80C333333330F982D
:100410006E12831141EF8D2114893BE65516CFFEF4
:10042000E6DB18D1844B381BF77C1D901DA4BBE480
:1004300024203284725E228100C9F124ECA1E53DC2
:10044000270011241FBECFEFDAE0DEBFCDBF12E0E0
:10045000A0E0B1E0EAEFF5E302C005900D92AA3307
:10046000B107D9F722E0AAE3B2E001C01D92A43996
:10047000B207E1F7A0D20C94FB1AC2CDFC011182A5
:10048000108221E030E0DB014C914423B9F0B2E06E
:1004900067387B0798F4413370F04153C90102C0BB
:1004A000880F991F4A95E2F7AC0180819181842BD6
:1004B000952B918380836F5F7F4FE5CF0895CF9316
:1004C000DF93FC012491EC012196222341F061E4A9
:1004D00072E0822F90E00E94031ACE01F2CFDF91EA
:1004E000CF9108953F924F925F926F927F928F9239
:1004F0009F92AF92BF92CF92DF92EF92FF920F93B3
:100500001F93CF93DF934C01362E0BE512E0C5E32A
:10051000D1E0412C512C66246394712C9DE1C92EAD
:1005200092E0D92E21E4A22E22E0B22EC301042CA7
:1005300002C0880F991F0A94E2F7F40120813181EB
:100540008223932392012F5F3F4F7901892B09F476
:1005500072C088E092E0B3DFFF92EF92DF92CF9219
:10056000BF92AF920E94F4190F900F900F900F90CE
:100570000F900F9031E0842D33122BC0883058F447
:100580002BB1C301088002C0880F991F0A94E2F7BB
:10059000282B2BB917C08B3059F025B1C301088027
:1005A00002C0880F991F0A94E2F7282B25B90AC0C8
:1005B00028B1C301088002C0880F991F0A94E2F78E
:1005C000282B28B985E592E07ADFF80180818160E7
:1005D0002DC0883060F42BB1C301088002C0880FA1
:1005E000991F0A94E2F7809582238BB919C08B304A
:1005F00061F025B1C301088002C0880F991F0A94D9
:10060000E2F78095822385B90BC028B1C301088029
:1006100002C0880F991F0A94E2F78095822388B957
:1006200083E492E04CDFF80180818E7F8083F801C3
:100630008081897F808327010F5F1F4F2196FCE017
:10064000EF16F10409F072CFDF91CF911F910F9156
:10065000FF90EF90DF90CF90BF90AF909F908F90E2
:100660007F906F905F904F903F90089580E190E071
:100670000E94BB1A682F8AEB860F813508F06EE660
:1006800070E080E090E00E94D21320E030E040E291
:1006900051E40C943713EF92FF920F931F93CF9373
:1006A000DF931F92CDB7DEB7082F112707FD1095F6
:1006B0000C5F1F4F34E0000F111F3A95E1F77B01EB
:1006C0008E2D861B9801280F311DC90169830E9458
:1006D000BB1A9FEF980F6981F7019E3F48F0108287
:1006E0000F90DF91CF911F910F91FF90EF900895A0
:1006F00081937F01E5CFCF92DF92EF92FF928CE062
:1007000090E00E94C31A6B017C0123E333E343E8CA
:1007100050E40E94331387FD12C02AE939E949E801
:1007200050E4C701B6010E948214181644F0A701D4
:100730009601C701B6010E94E914882339F046E604
:10074000C42EDC2C46E8E42E40E4F42EC701B601AA
:10075000FF90EF90DF90CF900895CF92DF92EF92CD
:10076000FF920F931F93CF93DF93C82FDD27C7FD11
:10077000D095249654E0CC0FDD1F5A95E1F77B010C
:100780008FE0E80EF11C8B016E01C61AD70AC80172
:100790008C0D9D1DF80161918F010E94CD1A0E15DF
:1007A0001F05A9F760E0CE010F96DF91CF911F9151
:1007B0000F91FF90EF90DF90CF900C94CD1A0F9394
:1007C0001F93CF93DF93CDB7DEB760970FB6F89442
:1007D000DEBF0FBECDBF80E2E7E6F2E0DF011D9293
:1007E0008A95E9F710923A028E010F5F1F4FB80108
:1007F0008FEF51DF1F930F9381E491E09F938F93CD
:1008000081E492E09F938F930E94F4190F900F90D0
:100810000F900F900F900F9060960FB6F894DEBF78
:100820000FBECDBFDF91CF911F910F91089582E050
:1008300091E00E94B6110C9410118F929F92AF928A
:10084000BF92CF92DF92EF92FF9255DF4B015C0196
:1008500060E070E0CB010E94D0136B017C0120E0CE
:1008600030E040E85AE3C501B4010E9486149B01C0
:10087000AC01C701B6010E948614FF90EF90DF9093
:10088000CF90BF90AF909F908F900895CF92DF92BE
:10089000EF92FF92CF93C82FD0DF6B017C018C2F9A
:1008A00090E080960E94BB1A682F84EC860F8536F4
:1008B00008F06EE670E080E090E00E94D21320E045
:1008C00030E040E251E40E9437139B01AC01C701C4
:1008D000B6010E9437136B017C012FE632E143E839
:1008E0005AE30E94331387FF03C0C12CD12C760139
:1008F0002DEC3CEC4CE45DE3C701B6010E943713DC
:10090000CF91FF90EF90DF90CF9008951F920F92BC
:100910000FB60F9211242F933F934F935F936F93D2
:100920007F938F939F93AF93BF93EF93FF938091A8
:100930003D0290913E02A0913F02B091400201968B
:10094000A11DB11D80933D0290933E02A0933F02F2
:10095000B093400260913D0270913E0280913F024F
:100960009091400224E130E040E050E00E94701895
:10097000672B682B692B19F481E080933C028091EE
:100980003D0290913E02A0913F02B091400281E071
:1009900080933B02FF91EF91BF91AF919F918F9117
:1009A0007F916F915F914F913F912F910F900FBE6B
:1009B0000F901F901895CF93DF93CDB7DEB7649754
:1009C0000FB6F894DEBF0FBECDBF84B7877F84BF5C
:1009D0008091600088618093600083E48093600070
:1009E00080916400877D80936400809165008E7F94
:1009F0008093650080B78F7B80BF80B7886880BF99
:100A000094E080E80FB6F8948093610090936100C1
:100A10000FBE0E949B0E61E472E082E091E00E94B2
:100A20000A12789404DF84EF91E0A3ECB9E0119707
:100A3000F1F700C0000001970097B9F781E191E05C
:100A40003EDD8AE591E09F938F939F938F938EE590
:100A500091E09F938F9381E492E09F938F930E9404
:100A6000F419E5DE8AB18FEF8AB984B1806784B961
:100A70003E9A84B1886884B9DADEA1DE0FB6F894B4
:100A8000DEBF0FBECDBF8E010F5F1F4F82E091E032
:100A90000E94CC117C0197FD4AC72B9A61E472E059
:100AA0000E94031AFDE0EF16F10481F174F438E0BE
:100AB000E316F104D9F04AE0E416F10439F153E009
:100AC000E516F10409F431C71BC78EE1E816F104FD
:100AD00009F40EC79FE7E916F10441F0ADE1EA160B
:100AE000F10409F00DC7E12CF12CF6C6E0913A02B1
:100AF000EE2309F41CC7E150E0933A02F0E0E95913
:100B0000FD4F108280E192E0DADC11C744E050E052
:100B10006CE871E087E692E00E94BE19892B19F417
:100B200081E892E000C746E050E065E871E087E6C2
:100B300092E00E94BE19892B09F0F7C07EDE6B019E
:100B40007C0194DD9B01AC01C701B6010E948614B3
:100B5000F82EE92E962E872E370180EF90E06C8BD1
:100B60007B8BADDCEF92FF927B897F936C896F93D7
:100B700086E691E09F938F9341E4E42E42E0F42EC9
:100B8000FF92EF920E94F41981EE90E098DC55DE1E
:100B90002DEC3CEC4CEC5EE30E94CE1227E73EEBE2
:100BA0004FE95CE30E9437139F938F937F936F937A
:100BB0008CE691E09F938F93FF92EF920E94F4193D
:100BC0000FB6F894DEBF0FBECDBF5BE5E52E52E059
:100BD000F52EAA24A394B12C71E4C72E72E0D72E6F
:100BE000E3E82E2EE1E03E2E5E2C2BE532E0521A99
:100BF00088E092E064DCB801852D4DDD1F930F93F2
:100C0000BF92AF92A2E7B1E0BF93AF93DF92CF92D2
:100C10000E94F419FA8AE98AD7018C910FB6F894E8
:100C2000DEBF0FBECDBF80FF03C085E592E002C0EE
:100C300083E492E044DC852D29DE2C0186ED90E0F2
:100C40006C8B7B8B3CDC5F924F927B897F936C89B2
:100C50006F93ACE7B1E0BF93AF93DF92CF926C8B11
:100C60007B8B0E94F4198EEC90E029DC6C897B89E7
:100C7000262F372F442D552DD401F3016B2F782DBE
:100C80008F2F962D0E9486149F938F937F936F933F
:100C90003F922F92DF92CF920E94F419D7018C914C
:100CA0000FB6F894DEBF0FBECDBF81FF03C08EE24A
:100CB00092E005DCFFEFEF1AFF0AA989BA898C914F
:100CC00082FF03C088E192E0FADBBFEFAB1ABB0AF8
:100CD000EDE0AE16B10409F087CF87EC90E0EFDBD2
:100CE000AA24A394B12C29E8C22E21E0D22E31E40B
:100CF000E32E32E0F32EA1DD9F938F937F936F93CA
:100D0000BF92AF92DF92CF92FF92EF920E94F419BE
:100D1000FFEFAF1ABF0A0FB6F894DEBF0FBECDBF0C
:100D200037E0A316B10439F700C647E050E06DE79D
:100D300071E087E692E00E94BE19892B09F0BFC0DE
:100D40007CDD6B017C0192DC9B01AC01C701B6012B
:100D50000E948614D62EC72EB82EA92E698B472E38
:100D6000582E692EB8018FEF96DC87EB90E0A7DB59
:100D70001F930F938AE591E09F938F9383E991E00E
:100D80009F938F93A1E4EA2EA2E0FA2EFF92EF92B6
:100D90000E94F41952DD2DEC3CEC4CEC5EE30E9419
:100DA000CE1227E73EEB4FE95CE30E9437139F9397
:100DB0008F937F936F93AF92BF92CF92DF928AE926
:100DC00091E09F938F93FF92EF920E94F41935DD8B
:100DD0009F938F937F936F939F938F937F936F9343
:100DE0009F938F937F936F939F938F937F936F9333
:100DF0009F938F937F936F939F938F937F936F9323
:100E000086EA91E09F938F93FF92EF920E94F419EC
:100E1000BBE5CB2EB2E0DB2E0FB6F894DEBF0FBEE3
:100E2000CDBFE12CF12C81E4282E82E0382EAE2CAF
:100E3000B8018E2D30DCD601BD906D01BFEFEB1AED
:100E4000FB0A8A2D23DDA62E972E882E792EB2FA44
:100E5000882780F91F928F93B1FA882780F91F9213
:100E60008F937989272F342D452D562D6A2D792D75
:100E7000882D972D0E9486149F938F937F936F9355
:100E80007F928F929F92AF928B2D81701F928F9342
:100E90001F930F93FF92EF92A6ECB1E0BF93AF9335
:100EA0003F922F920E94F4190FB6F894DEBF0FBE46
:100EB000CDBF3CE0E316F10409F0B9CF36C54AE0F6
:100EC00050E067E771E087E692E00E94BE19892B47
:100ED00009F0AFC18AE591E09F938F939F938F9321
:100EE00081EE91E09F938F9381E492E09F938F93A3
:100EF0000E94F41988EF91E0E2DA0FB6F894DEBFB1
:100F00000FBECDBFA12CB12CF1E4CF2EF2E0DF2E2D
:100F1000C5010E94BB1A1F928F93ADE1B2E0BF934F
:100F2000AF93E1E4EE2EE2E0FE2EDF92CF920E943C
:100F3000F419FFEFAF1ABF0A0F900F900F900F90A8
:100F40000F900F902CE0A216B10411F783EA91E004
:100F5000B6DAD1DBD62EC72EB82EA92E8CE090E0C3
:100F60000E94C31AAF92BF92CF92DF929F938F934A
:100F70007F936F938AEE91E09F938F93FF92EF920E
:100F80000E94F4198AE991E09ADA70DBD82EC92E12
:100F900080E190E06C8B7B8B0E94BB1ACF92DF923A
:100FA0007B897F936C896F931F928F9384EF91E07D
:100FB0009F938F93FF92EF920E94F41981E991E041
:100FC0007EDA0FB6F894DEBF0FBECDBF60E2E62E2C
:100FD000F12C71E4A72E72E0B72EC7010E94BB1A54
:100FE000D82E84EC8D0D853610F46D2D01C06EE683
:100FF00070E080E090E00E94D21320E030E040E218
:1010000051E40E9437139F938F937F936F931F92A6
:10101000DF92ACEFB1E0BF93AF9351E4C52E52E045
:10102000D52EBF92AF920E94F419FFEFEF1AFF0A7C
:101030000FB6F894DEBF0FBECDBF3CE2E316F1045D
:1010400061F688EE91E03BDA81E190E00E94BB1A04
:101050001F928F9385E092E09F938F93DF92CF92C0
:101060000E94F41989ED91E02ADA0F900F900F9009
:101070000F900F900F9028E1A22EB12C39E0C32ED3
:1010800032E0D32E41E4E42E42E0F42EC5010E946A
:10109000BB1A982F853608F094E61F929F931F92F3
:1010A0008F93DF92CF92FF92EF920E94F4194FEF4D
:1010B000A41AB40A0FB6F894DEBF0FBECDBF94E2F7
:1010C000A916B10419F789EC91E0F9D9E12CFF24B4
:1010D000F39480E1882E82E0982E91E4A92E92E08C
:1010E000B92EC7010E94C81A6C01BC0180E090E0D3
:1010F0000E94D01320E030E048EC52E40E94371305
:10110000762E672E582E492E20E030E040E252E441
:101110000E948214181624F4712C612C512C412C3D
:101120004F925F926F927F92DF92CF929F928F92B7
:10113000BF92AF920E94F419A2E0EA0EF11C0FB622
:10114000F894DEBF0FBECDBFF8E1EF16F1E0FF0669
:1011500041F68AEB91E0B3D9E0E1EE2EFF24F3945F
:10116000F0E18F2EF2E09F2EA1E4AA2EA2E0BA2E8B
:10117000C7010E94C81A6C01BC0180E090E00E9487
:10118000D01320E030E048EC52E40E943713762E72
:10119000672E582E492E20E030E040E252E40E94B3
:1011A0008214181634F4712C612C60E2562E72E40D
:1011B000472E4F925F926F927F92DF92CF929F92D3
:1011C0008F92BF92AF920E94F41922E0E20EF11CBE
:1011D0000FB6F894DEBF0FBECDBF58E2E51651E062
:1011E000F50631F68CEA90E06AD950E3E52EF12C51
:1011F000C12CD12CC6018E0D9F1D0E94BB1A61E42B
:1012000072E090E00E94031A8FEFC81AD80A90E1AA
:10121000C916D10479F761E472E080E290E00E949F
:10122000031AA0E1EA0EF11CE114B1E0FB0601F79C
:101230007CC343E050E063E771E087E692E00E9400
:10124000BE19892B29F46AE672E0C80117D94BC090
:1012500044E050E06EE671E087E692E00E94BE193D
:10126000892B41F46BE672E0C80108D960E0C8013F
:1012700039D95BC346E050E067E671E087E692E06B
:101280000E94BE19892B89F56DE672E0C801F6D877
:1012900060E0C80127D961E472E089E192E00E9430
:1012A000351AC5DAE12CF12C81E190E00E94BB1ADD
:1012B0008F3108F081E090E0E816F906A0F4EFE342
:1012C000FDE023E0E150F0402040E1F700C00000E5
:1012D00061E472E08EE290E00E94031AA8DA3FEF28
:1012E000E31AF30AE1CF61E0C2CF48E050E06EE5D7
:1012F00071E087E692E00E94BE19892B41F58FE6E6
:1013000092E00E94C918682FD92EE82EF92E4FE1DD
:10131000E416F104E0F488EE91E06C8BD0D8DF9213
:10132000EF922EED31E03F932F9321E432E03F9393
:101330002F930E94F4196C8981E190E00E94CD1AEC
:101340000F900F900F900F900F900F90EEC246E00D
:1013500050E067E571E087E692E00E94BE19892BB4
:1013600009F073C042E050E06EE071E08DE692E07B
:101370000E94BE19892B19F099249A9402C09924CD
:10138000939443E050E06AE071E08DE692E00E94C1
:10139000BE19892B31F051E0951257C06FE672E00B
:1013A00003C0912C60E772E0C80168D83FE4E32EE7
:1013B00032E0F32E80E090E041E4A42E42E0B42E2F
:1013C00021E030E0082E02C0220F331F0A94E2F71A
:1013D00049815A8124233523DC0111966D01232B89
:1013E00059F1B1E09B1205C0F701208121602083F3
:1013F00004C0D7012C912E7F2C93F70160810E94AD
:10140000CD1A88EF91E05BD8DF92CF92ADE1B2E0E8
:10141000BF93AF93BF92AF920E94F4190F900F90B9
:101420000F900F900F900F90992019F085E592E0A2
:1014300002C083E492E043D8C601FFEFEF1AFF0A2F
:101440008C30910509F0BCCF70C244E050E069E2F5
:1014500071E087E692E00E94BE19892B09F087C0EF
:1014600042E050E067E071E08BE692E00E94BE1936
:10147000892B19F099249A9402C09924939443E0FB
:1014800050E063E071E08BE692E00E94BE19892B88
:1014900031F021E092126BC06DE672E003C0912C36
:1014A0006EE672E0C8010E943E029FE4E92E92E0DF
:1014B000F92E2BE5A22E22E0B22E80E090E021E072
:1014C00030E0082E02C0220F331F0A94E2F7498150
:1014D0005A8124233523AC014F5F5F4F6A01232BD0
:1014E000D1F151E0D7012C91951206C022602C93C6
:1014F000F5012081246005C02D7F2C93F50120810A
:101500002B7F2083D7016C910E94CD1A61E472E099
:1015100089E192E00E94351A89E291E00E945F021F
:10152000DF92CF92ACE1B2E0BF93AF9381E492E05F
:101530009F938F930E94F4190F900F900F900F902C
:101540000F900F90992019F085E592E002C083E496
:1015500092E00E945F02C601FFEFEF1AFF0A2FEF31
:10156000A21AB20A8C30910509F0A9CFDEC147E07A
:1015700050E061E271E087E692E00E94BE19892B9B
:1015800009F06DC042E050E060E071E08EE692E06C
:101590000E94BE19892B39F0DD24DA948EE6E82EFC
:1015A00082E0F82E06C0DD24D394B0E7EB2EB2E043
:1015B000FB2E43E050E06CEF70E0C7010E94BE19C3
:1015C000892B29F433E0E30EF11CD12C03C041E058
:1015D000D41245C0F70121912032E9F32930D9F323
:1015E000AFECCA2EC20E57E05C15C8F1CF010E94C5
:1015F000C9187C0164E670E00E94491880E090E020
:101600000E94D01320E030E040E252E40E94331305
:1016100018162CF18C2D90E0A1E0DA1203C0885747
:101620009F4F02C080589F4FB701880F991F0E949B
:10163000E71A8CEA91E00E945F02B70180E090E037
:101640000E94D01320E030E048EC52E40E943713AF
:101650009F938F937F936F9386E691E02FC147E02E
:1016600050E067E371E087E692E00E94BE19892BA3
:10167000A9F5AEE6B2E0FD018D918032E1F389304B
:10168000D1F37FECF72EF80E27E02F15D8F0FD01EF
:10169000BF0181918032E1F38930D1F38F2D5DD884
:1016A00088E092E00E945F02B8018F2D0E944B03F8
:1016B0001F930F938F2D90E001969F938F9381E25C
:1016C00092E0FCC0803551F43196BF0181918032A7
:1016D000E1F38930D1F38FEF40D827C148E050E0E3
:1016E0006EE271E087E692E00E94BE19892B89F5CF
:1016F000EFE6F2E021912032E9F32930D9F32153CA
:10170000283038F5CF012B8B0E94C91864E670E0B1
:101710000E945D187B012B8965367105D0F4822FFC
:1017200090E048960E94CD1A89ED91E00E945F02F8
:10173000B70180E090E00E94D01320E030E040E26A
:1017400051E495D79F938F937F936F938DE292E0AF
:10175000B5C047E050E06FE471E087E692E00E9498
:10176000BE19892B61F58EE692E00E94C918BC0172
:1017700084509041893C910510F580E090E00E94F2
:10178000D01320E030E04AE754E471D7F62EE72E7C
:10179000D82EC92E9701C601432F522F692F782FBB
:1017A0008CE090E00E94DF1A83EA91E00E945F02E1
:1017B000CF92DF92EF92FF9283E392E07FC047E007
:1017C00050E067E471E087E692E00E94BE19892B41
:1017D00051F58EE692E00E94C918BC018654910929
:1017E0008135910500F580E090E0DAD720E030E027
:1017F00040E251E43CD7F62EE72ED82EC92E20E049
:1018000030E040E251E4D701F6016B2F7A2F8F2FA1
:101810009E2F0E94861493D780E190E00E94CD1AFB
:101820008AE991E043C047E050E06FE371E087E66A
:1018300092E00E94BE19892B09F073C0EEE6F2E037
:10184000CF0121912032E1F32930D1F36FECB62E94
:10185000B20EF7E0FB1508F464C001960E94C918A7
:10186000BC01CC978536910508F05BC080E090E024
:1018700097D720E030E040E251E4F9D6F62EE72E8B
:10188000D82EC92E20E030E040E251E4D701F60125
:101890006B2F7A2F8F2F9E2F0E94861450D78B2D5F
:1018A00090E080960E94CD1A81E991E00E945F024B
:1018B000CF92DF92EF92FF9287EF91E09F938F9309
:1018C00081E492E09F938F930E94F4190FB6F894ED
:1018D000DEBF0FBECDBF29C06FEFC7010E94CD1A7A
:1018E0003FEFE31AF30AE11441E0F406A9F71DC043
:1018F00010926E00E0910001F0910101099517C06E
:10190000E0913A02EF3168F4AE2FB0E0A959BD4F33
:10191000EC92EF5FE0933A02F0E0E959FD4F10825C
:1019200006C086E692E00E945F020E94DF032B98C9
:101930000E941704ABC80895089582E091E08CC41A
:1019400082E091E07BC5292F33272230310559F001
:101950002330310569F021303105F9F482E190E05E
:101960002DE233E01EC08EE390E02FEE32E019C08E
:1019700099278130910541F08230910541F0892B02
:1019800061F4EBEEF2E005C0EDEDF2E002C0E1EC57
:10199000F2E0849190E09F0104C080E090E020E0BC
:1019A00030E0FA0131832083089520919202309132
:1019B00093022617370748F06115710539F4209115
:1019C000E8002E772093E80001C0B901FC0120E077
:1019D00061157105B9F180918B02882309F440C02B
:1019E000853009F43FC08091E80083FD3DC08091BF
:1019F000E80082FF06C08091E80082FF26C080E0F8
:101A000008958091E80080FFE3CF2091F30080915A
:101A1000F20090E0922B6115710551F0883091052C
:101A200038F421912093F100615071090196F3CFB0
:101A300021E0089709F020E08091E8008E778093FC
:101A4000E800C6CF2111C7CFD6CF80918B02882363
:101A500039F0853039F08091E80083FFCCCF04C0A5
:101A600082E0089583E0089581E008952091920234
:101A7000309193022617370748F06115710539F444
:101A80002091E8002E772093E80001C0B901FC0105
:101A900020E061157105C1F180918B02882309F462
:101AA00041C0853009F440C08091E80083FD3EC00C
:101AB0008091E80082FF06C08091E80082FF27C085
:101AC00080E008958091E80080FFE3CF2091F3004B
:101AD0008091F20090E0922B6115710559F08830E9
:101AE000910540F424912093F100319661507109E1
:101AF0000196F2CF21E0089709F020E08091E800FC
:101B00008E778093E800C5CF2111C6CFD5CF8091C5
:101B10008B02882339F0853039F08091E80083FF0B
:101B2000CBCF04C082E0089583E0089581E008955A
:101B3000982F973058F59093E900981739F07091E5
:101B4000EC002091ED005091F00003C0242F762F7F
:101B500050E021FF19C03091EB003E7F3093EB0045
:101B60003091ED003D7F3093ED003091EB0031601E
:101B70003093EB007093EC002093ED005093F00055
:101B80002091EE0027FF07C09F5FD3CF8F70809317
:101B9000E90081E0089580E008950F931F93CF93AB
:101BA000DF93062FEC0110E0101771F19881992353
:101BB00041F12C81E981FA817B81892F8F708730F7
:101BC00010F080E022C0223010F056E001C052E058
:101BD00028E030E040E02E173F0720F44F5F220F4F
:101BE000331FF9CF4295407F452B692F661F66272B
:101BF000661F90E4799F90011124622B99DF88235E
:101C000001F31F5F2596D0CF81E0DF91CF911F9127
:101C10000F91089580918C0287FD05C08091E800A6
:101C200080FF0EC012C08091E80082FD05C0809147
:101C30008B028111F8CF08958091E8008B7708C05E
:101C400080918B028111EACF08958091E8008E7710
:101C50008093E80008958091E4009091E50045E6C6
:101C60002091EC0020FF21C02091E80020FD21C040
:101C700020918B02222389F0253089F02091EB00FE
:101C800025FD0FC02091E4003091E50028173907A9
:101C900039F3415041F0C901E3CF82E0089583E078
:101CA000089581E0089584E008952091E80022FFDE
:101CB000DFCF80E008950F931F93CF93DF934BD036
:101CC00052D0C8EDD0E088818F7788838881806882
:101CD000888388818F7D888319BC10928B02109233
:101CE0008702109289021092880200EE10E0F8013B
:101CF00080818B7F808388818160888342E060E07F
:101D000080E016DFE1EEF0E080818E7F8083E2EEFE
:101D1000F0E0808181608083808188608083F80129
:101D200080818E7F8083888180618883DF91CF91DD
:101D30001F910F910895E8EDF0E080818F7E808300
:101D4000E7EDF0E080818160808384E082BF81E004
:101D500080938A02B0CFE8EDF0E080818E7F8083AF
:101D60001092E20008951092DA001092E1000895B6
:101D70001F920F920FB60F9211242F933F934F9300
:101D80005F936F937F938F939F93AF93BF93EF93E3
:101D9000FF938091E10082FF0AC08091E20082FF00
:101DA00006C08091E1008B7F8093E10038D2809162
:101DB000DA0080FF1DC08091D80080FF19C080919B
:101DC000DA008E7F8093DA008091D90080FF0CC00A
:101DD00080E189BD82E189BD09B400FEFDCF81E0CB
:101DE00080938B02A8DD04C019BC10928B02A4DD85
:101DF0008091E10080FF18C08091E20080FF14C054
:101E00008091E2008E7F8093E2008091E200806109
:101E10008093E2008091D80080628093D80019BC42
:101E200085E080938B02FBD18091E10084FF2FC07D
:101E30008091E20084FF2BC080E189BD82E189BDF1
:101E400009B400FEFDCF8091D8008F7D8093D8002B
:101E50008091E1008F7E8093E1008091E2008F7E8F
:101E60008093E2008091E20081608093E2008091A3
:101E70008702882311F084E007C08091E30087FF88
:101E800002C083E001C081E080938B02C8D18091C1
:101E9000E10083FF27C08091E20083FF23C080918F
:101EA000E100877F8093E10082E080938B021092B3
:101EB00087028091E1008E7F8093E1008091E200B3
:101EC0008E7F8093E2008091E20080618093E20047
:101ED00042E060E080E02CDE8091F000886080933A
:101EE000F0009DD1FF91EF91BF91AF919F918F91A4
:101EF0007F916F915F914F913F912F910F900FBE06
:101F00000F901F9018951F920F920FB60F921124E9
:101F10002F933F934F935F936F937F938F939F93F1
:101F2000AF93BF93CF93EF93FF93C091E900CF702E
:101F30008091EC001092E9008091F000877F8093FF
:101F4000F00078941BD01092E9008091F000886036
:101F50008093F000C093E900FF91EF91CF91BF9182
:101F6000AF919F918F917F916F915F914F913F9131
:101F70002F910F900FBE0F901F9018951F93CF9326
:101F8000DF93CDB7DEB7AA970FB6F894DEBF0FBECA
:101F9000CDBFECE8F2E08091F100819322E0E439DA
:101FA000F207C9F7CDDC8091E80083FF20C1909152
:101FB0008C0280918D02853009F477C030F4813035
:101FC00081F168F0833069F112C1883009F4E1C011
:101FD000893009F4F0C0863009F009C188C0903812
:101FE00081F0923809F003C1809190028F70809344
:101FF000E9008091EB0085FB882780F91092E900C9
:1020000006C080918802909189029111826090911E
:10201000E800977F9093E8008093F1001092F10020
:10202000C3C0292F2D7F09F0E2C0992319F0923007
:1020300061F0DDC090918E02913009F0D8C08330FC
:1020400009F090E0909389022AC090918E0291113C
:1020500026C0209190022F7009F4C9C02093E90096
:102060009091EB0090FF1BC0833021F48091EB0036
:10207000806213C08091EB0080618093EB0081E06F
:1020800090E0022E01C0880F0A94EAF78093EA00DC
:102090001092EA008091EB0088608093EB00109230
:1020A000E9008091E800877F82C09111A0C0109163
:1020B0008E021F778091E3008078812B8093E3006C
:1020C0008091E800877F8093E800A4DD8091E8009C
:1020D00080FFFCCF8091E30080688093E3001123B0
:1020E00011F083E001C082E080938B0280C09058A1
:1020F000923008F07CC080918E0290918F028C3DCE
:1021000023E0920771F583E08A838AE289834FB7DF
:10211000F894DE01139620E03EE051E2E32FF0E078
:1021200050935700E49120FF03C0E295EF703F5FAA
:10213000EF708E2F90E0EA3010F0C79601C0C09685
:102140008D939D932F5F243149F74FBF8091E80015
:10215000877F8093E8006AE270E0CE01019625DC7B
:1021600012C0AE014F5F5F4F60919002ECDB0097B1
:1021700009F43DC02091E800277F2093E800BC01CE
:1021800089819A8173DC8091E8008B778093E800E5
:102190002EC0903861F58091E800877F8093E80039
:1021A000809187028093F1008091E8008E77809380
:1021B000E80030DD1CC091111AC090918E0292305F
:1021C000B0F48091E800877F8093E80090938702C5
:1021D00021DD80918702811104C08091E30087FF97
:1021E00002C084E001C081E080938B02A6DB809175
:1021F000E80083FF0AC08091E800877F8093E800B1
:102200008091EB0080628093EB00AA960FB6F89461
:10221000DEBF0FBECDBFDF91CF911F91089508950E
:10222000CF9380918B028823A9F08091E9008F7071
:102230009091EC0090FF02C090E801C090E0C92F9F
:10224000C82B1092E9008091E80083FD97DECF70E3
:10225000C093E900CF910895CF93DF93EC01FC0187
:1022600070968BE0DF011D928A95E9F782E08C83FE
:10227000898783E08E8761E0CE0101968EDC88231A
:1022800061F061E0CE01069688DC882331F061E0E0
:10229000CE010B96DF91CF9180CC80E0DF91CF9182
:1022A0000895CF93C62F20918B022430F1F4FC01C6
:1022B0004489558966897789452B462B472BA9F098
:1022C00081818F708093E9008091E80085FF04C0D0
:1022D000C093F10080E00AC08091E8008E7780937F
:1022E000E800B9DC8823A1F301C082E0CF91089512
:1022F000FB01682F84859585D4DF21E030E08111D2
:1023000002C020E030E088279927821B930B0895B4
:1023100020918B02243041F5FC014489558966895E
:102320007789452B462B472BF9F081818F7080935D
:10233000E9002091F3008091F20090E0922B892B2C
:1023400089F09091E8008091E8008E778093E80012
:1023500095FD08C080DC811108C08091E8008E776F
:102360008093E80080E0089582E0089520918B0238
:10237000243089F4FC014489558966897789452B85
:10238000462B472B41F021812F702093E9002091AB
:10239000E80020FDBDCF089520918B02243019F074
:1023A0008FEF9FEF0895FC014489558966897789ED
:1023B000452B462B472BA1F386818F708093E90034
:1023C0008091E80082FFECCF2091F3008091F20031
:1023D00090E0922B892B21F02091F10030E002C097
:1023E0002FEF3FEF4091F3008091F20090E0942BAB
:1023F000892B29F48091E8008B778093E800C9014C
:102400000895FC0184859585C7DF97FF02C08EEF94
:102410009FEF0895FB012EE0DB011D922A95E9F75D
:1024200023E0238328E731E13187208721E032E16F
:10243000338722879587848708950895CF93DF9304
:10244000EC018091E80083FFA6C0888190E0209194
:102450009002309191022817390709F09CC08091B1
:102460008D02813261F020F4803209F43EC093C0C5
:10247000823209F46CC0833209F47DC08CC0809133
:102480008C02813A09F087C08091E800877F8093B1
:10249000E8008091E80080FFFCCF4C895D896E895F
:1024A0007F894093F100BB27A72F962F852F80931C
:1024B000F100CB01AA27BB278093F100472F5527B6
:1024C000662777274093F100888D8093F100898DEE
:1024D0008093F1008A8D8093F1008091E8008E77DF
:1024E0008093E800DF91CF9195CB80918C0281326F
:1024F00009F051C08091E800877F8093E8008091C7
:10250000E80082FD05C080918B028111F8CF43C0A5
:102510003091F1002091F1009091F1008091F10053
:102520003C8B2D8B9E8B8F8B8091F100888F8091BF
:10253000F100898F8091F1008A8F8091E8008B777C
:102540008093E80067DBCE01DF91CF9176CF809159
:102550008C02813201F58091E800877F8093E8004A
:1025600059DB80918E0290918F02998B888BCE01DE
:10257000DF91CF9162CF80918C02813261F48091A2
:10258000E800877F8093E80045DB60918E02CE01F2
:10259000DF91CF9152CFDF91CF9108955058BB2753
:1025A000AA270ED075C166D130F06BD120F031F47E
:1025B0009F3F11F41EF45BC10EF4E095E7FB51C19F
:1025C000E92F77D180F3BA1762077307840795075D
:1025D00018F071F49EF58FC10EF4E0950B2EBA2F12
:1025E000A02D0B01B90190010C01CA01A001112419
:1025F000FF27591B99F0593F50F4503E68F11A16C5
:10260000F040A22F232F342F4427585FF3CF469555
:1026100037952795A795F0405395C9F77EF41F1677
:10262000BA0B620B730B840BBAF09150A1F0FF0F41
:10263000BB1F661F771F881FC2F70EC0BA0F621F2D
:10264000731F841F48F4879577956795B795F7951D
:102650009E3F08F0B3CF9395880F08F09927EE0FAF
:10266000979587950895D9D008F481E008950CD006
:102670000FC107D140F0FED030F021F45F3F19F0D8
:10268000F0C0511139C1F3C014D198F39923C9F3A3
:102690005523B1F3951B550BBB27AA276217730768
:1026A000840738F09F5F5F4F220F331F441FAA1F1C
:1026B000A9F333D00E2E3AF0E0E830D091505040DC
:1026C000E695001CCAF729D0FE2F27D0660F771F8A
:1026D000881FBB1F261737074807AB07B0E809F06C
:1026E000BB0B802DBF01FF2793585F4F2AF09E3F01
:1026F000510568F0B6C000C15F3FECF3983EDCF3D3
:10270000869577956795B795F7959F5FC9F7880F79
:10271000911D9695879597F90895E1E0660F771FCB
:10272000881FBB1F621773078407BA0720F0621B5C
:10273000730B840BBA0BEE1F88F7E095089504D055
:102740006894B111D9C00895BCD088F09F5790F01B
:10275000B92F9927B751A0F0D1F0660F771F881FC6
:10276000991F1AF0BA95C9F712C0B13081F0C3D0E1
:10277000B1E00895C0C0672F782F8827B85F39F07F
:10278000B93FCCF3869577956795B395D9F73EF425
:1027900090958095709561957F4F8F4F9F4F0895CD
:1027A000E89409C097FB3EF49095809570956195EB
:1027B0007F4F8F4F9F4F9923A9F0F92F96E9BB27A1
:1027C0009395F695879577956795B795F111F8CF1D
:1027D000FAF4BB0F11F460FF1BC06F5F7F4F8F4F88
:1027E0009F4F16C0882311F096E911C0772321F07E
:1027F0009EE8872F762F05C0662371F096E8862F16
:1028000070E060E02AF09A95660F771F881FDAF76C
:10281000880F9695879597F90895990F0008550F99
:10282000AA0BE0E8FEEF16161706E807F907C0F056
:1028300012161306E407F50798F0621B730B840B5E
:10284000950B39F40A2661F0232B242B252B21F438
:1028500008950A2609F4A140A6958FEF811D811DD8
:10286000089597F99F6780E870E060E008959FEF12
:1028700080EC089500240A94161617061806090617
:10288000089500240A9412161306140605060895E6
:10289000092E0394000C11F4882352F0BB0F40F46E
:1028A000BF2B11F460FF04C06F5F7F4F8F4F9F4FAE
:1028B000089557FD9058440F551F59F05F3F71F030
:1028C0004795880F97FB991F61F09F3F79F0879597
:1028D0000895121613061406551FF2CF4695F1DF20
:1028E00008C0161617061806991FF1CF86957105B0
:1028F000610508940895E894BB2766277727CB01E4
:1029000097F908958ADF08F48FEF08950BD0C0CFB0
:10291000B1DF28F0B6DF18F0952309F0A2CFA7CFDA
:102920001124EACFC6DFA0F3959FD1F3950F50E0B5
:10293000551F629FF001729FBB27F00DB11D639F71
:10294000AA27F00DB11DAA1F649F6627B00DA11D17
:10295000661F829F2227B00DA11D621F739FB00DBD
:10296000A11D621F839FA00D611D221F749F33272D
:10297000A00D611D231F849F600D211D822F762FC6
:102980006A2F11249F5750408AF0E1F088234AF0C3
:10299000EE0FFF1FBB1F661F771F881F915050400F
:1029A000A9F79E3F510570F05CCFA6CF5F3FECF3D7
:1029B000983EDCF3869577956795B795F795E795FB
:1029C0009F5FC1F7FE2B880F911D9695879597F90C
:1029D000089523DF880B990B0895A3E1B0E0E2EF9F
:1029E000F4E1A0C37C011B016A01FC01178216827D
:1029F000838181FF49C3BE016F5F7F4F4B01F701A8
:102A00009381F10193FD859193FF81911F018823AB
:102A100009F436C3853239F493FD859193FF819192
:102A20001F01853231F4B70190E0EDD45601650104
:102A3000E6CF10E0512C20E02032A0F48B3269F078
:102A400030F4803259F0833269F420612CC08D3229
:102A500039F0803339F4216026C02260246023C01D
:102A6000286021C027FD27C030ED380F3A3078F4B8
:102A700026FF06C0FAE01F9F300D1124132F13C04C
:102A80006AE0569E300D1124532E20620CC08E3207
:102A900021F426FDF5C2206406C08C3611F42068AE
:102AA00002C0883641F4F10193FD859193FF819135
:102AB0001F018111C1CF9BEB980F933018F4206157
:102AC000805E06C09BE9980F933008F09AC12F7E74
:102AD00026FF16E02F73722E853621F4F22FF06454
:102AE0007F2E08C0863621F4622F6068762E02C0E1
:102AF0001111115077FE07C01C3348F4442443944D
:102B0000410E27E00BC0183030F4212F06C027E01B
:102B10004CE3442E03C027E017E0412C560174E03B
:102B2000A70EB11CF6016081718182819381042D11
:102B3000A4014CD36C01098100FF02C003FF06C051
:102B400071FC07C072FC08C0612C08C03DE2632E16
:102B500005C02BE2622E02C090E2692E802F8C709D
:102B600081F1662011F084E001C083E0851510F04A
:102B7000512C0AC0581A73FC07C0B70180E290E0DC
:102B800042D45A94D1F7F4CF662021F0B701862DB4
:102B900090E039D403FD03C003E413E002C00FE367
:102BA00013E0F72DF0717F2EF8018491882309F44A
:102BB0005EC271108052B70190E025D40F5F1F4FA5
:102BC000F3CF77FE0FC04C0C04FF04C08A81813321
:102BD00009F44A94141474F5F8E0F41578F588E0D3
:102BE000482E2CC076FC2AC0812F90E08C159D05C4
:102BF0009CF06CEFC6166FEFD60674F0772D7068F8
:102C0000772E0AC0E2E0F0E0EC0FFD1FE10FF11DAE
:102C10008081803319F411501111F4CF77FE0EC06A
:102C200044244394410E812F90E0C816D9062CF419
:102C30001C1904C04424439401C010E077FE07C06F
:102C40001C141D043CF496012F5F3F4F05C025E086
:102C500030E002C021E030E0662011F02F5F3F4FEE
:102C6000112331F0412F50E04F5F5F4F240F351F8C
:102C7000452D50E02417350714F4521A01C0512C89
:102C8000872D897041F4552031F0B70180E290E042
:102C9000BAD35A94F8CF662021F0B701862D90E080
:102CA000B2D373FC08C0552031F0B70180E390E047
:102CB000AAD35A94F8CF77FE5DC09C2D8D2DD7FEF8
:102CC00002C090E080E0692E782E40E050E0C6011E
:102CD000841991099D878C87960126193709280D3B
:102CE000391D812F90E0EE27FF27E81BF90BFF87A6
:102CF000EE87FFEF6F167F0661F4B7018EE290E07A
:102D00002B8B3A8B488B598B7ED3598948893A89CA
:102D10002B89C614D70454F06C857D85661577051C
:102D20002CF4F901E40FF51F818101C080E371E00B
:102D3000671A71084F5F5F4FEE85FF856E167F063D
:102D400064F0B70190E02B8B3A8B488B598B5BD3A7
:102D50002B893A8948895989CCCF6C147D0439F480
:102D60009A81963318F4953311F404FF81E3B70187
:102D700090E045C08A81813309F00F7EB70190E071
:102D800042D3111105C074FE16C085E490E015C051
:102D9000B7018EE290E037D382E066246394680E38
:102DA000F401E80FF11D8081B70190E02CD31150A0
:102DB00051F3862DF2CF85E690E0B70124D3D7FCFE
:102DC00005C0C114D10439F404FF05C0D194C194E5
:102DD000D1088DE201C08BE2B70190E014D380E30B
:102DE0006AE0C616D1042CF08F5FFAE0CF1AD10842
:102DF000F7CFB70190E007D3B701C601C09603D360
:102E000036C1833631F0833779F0833509F054C009
:102E100020C0560172E0A70EB11CF60180818983A3
:102E200001E010E0640113C05601F2E0AF0EB11CE6
:102E3000F601C080D18026FF03C0612F70E002C080
:102E40006FEF7FEFC6012B8BBCD28C012B892F77C4
:102E500014C05601F2E0AF0EB11CF601C080D18063
:102E600026FF03C0612F70E002C06FEF7FEFC60145
:102E70002B8B9CD28C012B892068722E23FD18C0CD
:102E8000852D90E00817190798F4B70180E290E0CB
:102E9000BAD25A94F5CFF60177FC859177FE8191ED
:102EA0006F01B70190E0AFD251105A94015011094F
:102EB0000115110581F7DBC0843611F0893649F51B
:102EC000560127FF09C0F4E0AF0EB11CF601608186
:102ED0007181828193810AC0F2E0AF0EB11CF601CC
:102EE00060817181882777FD8095982F022F0F765A
:102EF00097FF08C090958095709561957F4F8F4F93
:102F00009F4F00682AE030E0A401D7D2C82EC8182D
:102F10003DC0022F853721F40F7E2AE030E01DC02E
:102F2000097F8F3691F018F4883559F0A9C08037A1
:102F300019F0883711F0A4C0006104FF09C00460D3
:102F400007C024FF08C0066006C028E030E005C0C6
:102F500020E130E002C020E132E0560107FF09C065
:102F6000F4E0AF0EB11CF601608171818281938122
:102F700008C0F2E0AF0EB11CF6016081718180E003
:102F800090E0A4019AD2C82EC8180F7706FF0BC094
:102F9000202F2E7FC11650F404FF0AC002FD08C086
:102FA000202F2E7E05C0DC2C202F03C0DC2C01C07E
:102FB000D12E24FF0DC0FE01EC0DF11D8081803368
:102FC00011F4297E09C022FF06C0D394D39404C013
:102FD000822F867809F0D39423FD12C020FF06C00B
:102FE0001C2DD51418F4150D1D19D52CD51460F40D
:102FF000B70180E290E02B8B06D2D3942B89F6CFD9
:10300000D51410F45D1801C0512C24FF11C0B70174
:1030100080E390E02B8BF7D12B8922FF16C021FF94
:1030200003C088E590E002C088E790E0B7010CC0DB
:10303000822F867851F021FD02C080E201C08BE230
:1030400027FD8DE2B70190E0DED1C11630F4B70163
:1030500080E390E0D8D11150F8CFCA94F401EC0D80
:10306000F11D8081B70190E0CED1C110F6CF55207F
:1030700009F4DDCCB70180E290E0C5D15A94F7CFD6
:10308000F7018681978102C08FEF9FEF6396E2E19F
:1030900065C0AA1BBB1B51E107C0AA1FBB1FA61717
:1030A000B70710F0A61BB70B881F991F5A95A9F7F1
:1030B00080959095BC01CD01089597FB072E16F4DD
:1030C000009406D077FD08D0E4DF07FC05D03EF47D
:1030D000909581959F4F0895709561957F4F0895C4
:1030E000A1E21A2EAA1BBB1BFD010DC0AA1FBB1F0C
:1030F000EE1FFF1FA217B307E407F50720F0A21B7E
:10310000B30BE40BF50B661F771F881F991F1A94EA
:1031100069F760957095809590959B01AC01BD0114
:10312000CF0108952F923F924F925F926F927F92BC
:103130008F929F92AF92BF92CF92DF92EF92FF92C7
:103140000F931F93CF93DF93CDB7DEB7CA1BDB0B73
:103150000FB6F894DEBF0FBECDBF09942A88398818
:1031600048885F846E847D848C849B84AA84B9841F
:10317000C884DF80EE80FD800C811B81AA81B9812B
:10318000CE0FD11D0FB6F894DEBF0FBECDBFED013F
:103190000895FC0188279927E89421912032E9F3CA
:1031A000293010F02E30C8F32B3239F02D3231F4A3
:1031B000689403C011D1820F911D219120532A30B0
:1031C000C8F31EF4909581959F4F0895283008F01C
:1031D00027E03327DA01990F311D87FD91600096B2
:1031E0006105710539F432602E5F3D9330E32A9515
:1031F000E1F708959F3F30F080387105610509F0CF
:103200003C5F3C5F3D93913008F08068911DDF93F7
:10321000CF931F930F93FF92EF92192F987F96955C
:10322000E92F96959695E90FFF27EF55FC4F9927C3
:103230003327EE24FF24A701E701059008940794A3
:1032400028F4360FE71EF81E491F511D660F771F21
:10325000881F991F0694A1F70590079428F4E70E9C
:10326000F81E491F561FC11D770F881F991F661F23
:103270000694A1F70590079428F4F80E491F561FED
:10328000C71FD11D880F991F661F771F0694A1F7CE
:103290000590079420F4490F561FC71FD81F990F98
:1032A000661F771F881F0694A9F7849110951770E1
:1032B00041F0D695C79557954795F794E7941A9599
:1032C000C1F7E7E4F3E068941590159135916591A5
:1032D000959105907FE27395E118F10A430B560B27
:1032E000C90BD009C0F7E10CF11E431F561FC91FBF
:1032F000D01D7EF4703311F48A95E6CFE894015026
:1033000030F0080F0AF40027021708F4202F239545
:10331000022F7A3328F079E37D932A95E9F710C0DC
:103320007D932A9589F60694979567953795179515
:103330001794E118F10A430B560BC90BD00998F00A
:1033400023957E9173957A3308F070E37C93201374
:10335000B8F77E9170617D9330F0839571E37D9332
:1033600070E32A95E1F71124EF90FF900F911F91E0
:10337000CF91DF91992787FD90950895FB01DC019E
:103380004150504088F08D9181341CF08B350CF405
:10339000805E659161341CF06B350CF4605E861BB9
:1033A000611171F3990B0895881BFCCFFC01059006
:1033B000615070400110D8F7809590958E0F9F1F37
:1033C0000895FC016150704001900110D8F780957C
:1033D00090958E0F9F1F08957AE0979F902D879F5D
:1033E000802D910D11240895A0E0B0E0E9EFF9E1FE
:1033F000A9CEAE01475F5F4F6F8178858D819E8139
:10340000ECDAE2E0BBCE0F931F93CF93DF93182F3C
:10341000092FEB018B8181FD03C08FEF9FEF20C04F
:1034200082FF10C04E815F812C813D81421753077E
:103430007CF4E881F9819F012F5F3F4F3983288316
:10344000108306C0E885F985812F0995892B29F716
:103450002E813F812F5F3F4F3F832E83812F902FFF
:10346000DF91CF911F910F910895EF92FF920F93EB
:103470001F93CF93DF938B01DB0113962C9121FFD8
:1034800016C0EC01E12CF12C8991882371F0D80150
:103490001896ED91FC911997B8010995892BA1F324
:1034A000EE24EA94FF24FA94EFCFC70102C08FEF15
:1034B0009FEFCDB7DEB7E6E05DCEFA01AA27283050
:1034C00051F1203181F1E8946F936E7F6E5F7F4FF1
:1034D0008F4F9F4FAF4FB1E03ED0B4E03CD0670F6D
:1034E000781F891F9A1FA11D680F791F8A1F911DC0
:1034F000A11D6A0F711D811D911DA11D20D009F410
:1035000068943F912AE0269F11243019305D319351
:10351000DEF6CF010895462F4770405D4193B3E03A
:103520000FD0C9F7F6CF462F4F70405D4A3318F0E1
:10353000495D31FD4052419302D0A9F7EACFB4E092
:10354000A6959795879577956795BA95C9F700974A
:103550006105710508959B01AC010A2E06945795EB
:10356000479537952795BA95C9F7620F731F841F42
:10357000951FA01D0895F999FECF92BD81BDF89ABF
:10358000992780B50895A6E1B0E044E050E025C059
:10359000A8E1B0E042E050E020C0262FF999FECF2C
:1035A00092BD81BDF89A019700B4021639F01FBA96
:1035B00020BD0FB6F894FA9AF99A0FBE08950396B3
:1035C000272FECDFEADF252FE9DF242FE7CF019655
:1035D000272FE4DFE2CFDC01CB01FC01F999FECF1C
:1035E00006C0F2BDE1BDF89A319600B40D9241508B
:0A35F0005040B8F70895F894FFCF9B
:1035FA000038008310000001041000000182080056
:10360A00000100000000000000000000008090A0FF
:10361A00D0E0F0B0C0000000008090A0B0C0D0E0C0
:10362A00F000000000000102030504060704050675
:10363A00060D0A0D0A231B5B33326D2573201B5BB3
:10364A0033366D3E1B5B306D2000312E3000205624
:10365A0025732C257300252E32665600252E3066DA
:10366A004300256920222573223A2000252E32663E
:10367A00412000252E3166570025693A252E3266EB
:10368A005620002C25732C2573000D0A252E326630
:10369A002C252E3066000D0A252E32662C252E3258
:1036AA00662C252E32662C252E32662C252E326665
:1036BA002C252E3266000D0A25692C25732C2569C6
:1036CA002C252E32662C252E31662C25692C25694F
:1036DA00000D0A5625732C257300252E32663A25CD
:1036EA002E32660025693A252E31660025693A256B
:1036FA002E316620002569530025693A2569200084
:10370A0025753A252E316620000D0A0020256920EC
:10371A00002569204E414D453A20257300252E315A
:0A372A00664100252E3366560000AC
:00000001FF
